{
  "_format": "hh-sol-artifact-1",
  "contractName": "BING",
  "sourceName": "contracts/bingNFT.sol",
  "abi": [
    {
      "inputs": [
        {
          "internalType": "address",
          "name": "initialOwner",
          "type": "address"
        }
      ],
      "stateMutability": "nonpayable",
      "type": "constructor"
    },
    {
      "inputs": [
        {
          "internalType": "address",
          "name": "sender",
          "type": "address"
        },
        {
          "internalType": "uint256",
          "name": "tokenId",
          "type": "uint256"
        },
        {
          "internalType": "address",
          "name": "owner",
          "type": "address"
        }
      ],
      "name": "ERC721IncorrectOwner",
      "type": "error"
    },
    {
      "inputs": [
        {
          "internalType": "address",
          "name": "operator",
          "type": "address"
        },
        {
          "internalType": "uint256",
          "name": "tokenId",
          "type": "uint256"
        }
      ],
      "name": "ERC721InsufficientApproval",
      "type": "error"
    },
    {
      "inputs": [
        {
          "internalType": "address",
          "name": "approver",
          "type": "address"
        }
      ],
      "name": "ERC721InvalidApprover",
      "type": "error"
    },
    {
      "inputs": [
        {
          "internalType": "address",
          "name": "operator",
          "type": "address"
        }
      ],
      "name": "ERC721InvalidOperator",
      "type": "error"
    },
    {
      "inputs": [
        {
          "internalType": "address",
          "name": "owner",
          "type": "address"
        }
      ],
      "name": "ERC721InvalidOwner",
      "type": "error"
    },
    {
      "inputs": [
        {
          "internalType": "address",
          "name": "receiver",
          "type": "address"
        }
      ],
      "name": "ERC721InvalidReceiver",
      "type": "error"
    },
    {
      "inputs": [
        {
          "internalType": "address",
          "name": "sender",
          "type": "address"
        }
      ],
      "name": "ERC721InvalidSender",
      "type": "error"
    },
    {
      "inputs": [
        {
          "internalType": "uint256",
          "name": "tokenId",
          "type": "uint256"
        }
      ],
      "name": "ERC721NonexistentToken",
      "type": "error"
    },
    {
      "inputs": [
        {
          "internalType": "address",
          "name": "owner",
          "type": "address"
        }
      ],
      "name": "OwnableInvalidOwner",
      "type": "error"
    },
    {
      "inputs": [
        {
          "internalType": "address",
          "name": "account",
          "type": "address"
        }
      ],
      "name": "OwnableUnauthorizedAccount",
      "type": "error"
    },
    {
      "anonymous": false,
      "inputs": [
        {
          "indexed": true,
          "internalType": "address",
          "name": "owner",
          "type": "address"
        },
        {
          "indexed": true,
          "internalType": "address",
          "name": "approved",
          "type": "address"
        },
        {
          "indexed": true,
          "internalType": "uint256",
          "name": "tokenId",
          "type": "uint256"
        }
      ],
      "name": "Approval",
      "type": "event"
    },
    {
      "anonymous": false,
      "inputs": [
        {
          "indexed": true,
          "internalType": "address",
          "name": "owner",
          "type": "address"
        },
        {
          "indexed": true,
          "internalType": "address",
          "name": "operator",
          "type": "address"
        },
        {
          "indexed": false,
          "internalType": "bool",
          "name": "approved",
          "type": "bool"
        }
      ],
      "name": "ApprovalForAll",
      "type": "event"
    },
    {
      "anonymous": false,
      "inputs": [
        {
          "indexed": true,
          "internalType": "address",
          "name": "previousOwner",
          "type": "address"
        },
        {
          "indexed": true,
          "internalType": "address",
          "name": "newOwner",
          "type": "address"
        }
      ],
      "name": "OwnershipTransferred",
      "type": "event"
    },
    {
      "anonymous": false,
      "inputs": [
        {
          "indexed": true,
          "internalType": "address",
          "name": "from",
          "type": "address"
        },
        {
          "indexed": true,
          "internalType": "address",
          "name": "to",
          "type": "address"
        },
        {
          "indexed": true,
          "internalType": "uint256",
          "name": "tokenId",
          "type": "uint256"
        }
      ],
      "name": "Transfer",
      "type": "event"
    },
    {
      "inputs": [
        {
          "internalType": "address",
          "name": "",
          "type": "address"
        },
        {
          "internalType": "uint256",
          "name": "",
          "type": "uint256"
        }
      ],
      "name": "UserWarnings",
      "outputs": [
        {
          "internalType": "string",
          "name": "",
          "type": "string"
        }
      ],
      "stateMutability": "view",
      "type": "function"
    },
    {
      "inputs": [
        {
          "internalType": "address",
          "name": "to",
          "type": "address"
        },
        {
          "internalType": "string",
          "name": "name",
          "type": "string"
        },
        {
          "internalType": "string",
          "name": "mainIMG",
          "type": "string"
        },
        {
          "internalType": "string",
          "name": "quote1",
          "type": "string"
        },
        {
          "internalType": "string",
          "name": "quote2",
          "type": "string"
        }
      ],
      "name": "Usermint",
      "outputs": [],
      "stateMutability": "payable",
      "type": "function"
    },
    {
      "inputs": [
        {
          "internalType": "uint256",
          "name": "tokenId",
          "type": "uint256"
        }
      ],
      "name": "adminBurn",
      "outputs": [],
      "stateMutability": "nonpayable",
      "type": "function"
    },
    {
      "inputs": [
        {
          "internalType": "address",
          "name": "to",
          "type": "address"
        },
        {
          "internalType": "uint256",
          "name": "tokenId",
          "type": "uint256"
        }
      ],
      "name": "approve",
      "outputs": [],
      "stateMutability": "nonpayable",
      "type": "function"
    },
    {
      "inputs": [
        {
          "internalType": "address",
          "name": "owner",
          "type": "address"
        }
      ],
      "name": "balanceOf",
      "outputs": [
        {
          "internalType": "uint256",
          "name": "",
          "type": "uint256"
        }
      ],
      "stateMutability": "view",
      "type": "function"
    },
    {
      "inputs": [
        {
          "internalType": "uint256",
          "name": "tokenId",
          "type": "uint256"
        }
      ],
      "name": "getApproved",
      "outputs": [
        {
          "internalType": "address",
          "name": "",
          "type": "address"
        }
      ],
      "stateMutability": "view",
      "type": "function"
    },
    {
      "inputs": [
        {
          "internalType": "uint256",
          "name": "tokenId",
          "type": "uint256"
        }
      ],
      "name": "getMetadata",
      "outputs": [
        {
          "components": [
            {
              "internalType": "string",
              "name": "name",
              "type": "string"
            },
            {
              "internalType": "string",
              "name": "mainIMG",
              "type": "string"
            },
            {
              "internalType": "string",
              "name": "quote1",
              "type": "string"
            },
            {
              "internalType": "string",
              "name": "quote2",
              "type": "string"
            }
          ],
          "internalType": "struct BING.NFTMetaData",
          "name": "",
          "type": "tuple"
        }
      ],
      "stateMutability": "view",
      "type": "function"
    },
    {
      "inputs": [
        {
          "internalType": "address",
          "name": "user",
          "type": "address"
        }
      ],
      "name": "getWarnings",
      "outputs": [
        {
          "internalType": "string[]",
          "name": "",
          "type": "string[]"
        }
      ],
      "stateMutability": "view",
      "type": "function"
    },
    {
      "inputs": [
        {
          "internalType": "address",
          "name": "owner",
          "type": "address"
        },
        {
          "internalType": "address",
          "name": "operator",
          "type": "address"
        }
      ],
      "name": "isApprovedForAll",
      "outputs": [
        {
          "internalType": "bool",
          "name": "",
          "type": "bool"
        }
      ],
      "stateMutability": "view",
      "type": "function"
    },
    {
      "inputs": [],
      "name": "name",
      "outputs": [
        {
          "internalType": "string",
          "name": "",
          "type": "string"
        }
      ],
      "stateMutability": "view",
      "type": "function"
    },
    {
      "inputs": [],
      "name": "owner",
      "outputs": [
        {
          "internalType": "address",
          "name": "",
          "type": "address"
        }
      ],
      "stateMutability": "view",
      "type": "function"
    },
    {
      "inputs": [
        {
          "internalType": "uint256",
          "name": "tokenId",
          "type": "uint256"
        }
      ],
      "name": "ownerOf",
      "outputs": [
        {
          "internalType": "address",
          "name": "",
          "type": "address"
        }
      ],
      "stateMutability": "view",
      "type": "function"
    },
    {
      "inputs": [],
      "name": "renounceOwnership",
      "outputs": [],
      "stateMutability": "nonpayable",
      "type": "function"
    },
    {
      "inputs": [
        {
          "internalType": "address",
          "name": "from",
          "type": "address"
        },
        {
          "internalType": "address",
          "name": "to",
          "type": "address"
        },
        {
          "internalType": "uint256",
          "name": "tokenId",
          "type": "uint256"
        }
      ],
      "name": "safeTransferFrom",
      "outputs": [],
      "stateMutability": "nonpayable",
      "type": "function"
    },
    {
      "inputs": [
        {
          "internalType": "address",
          "name": "from",
          "type": "address"
        },
        {
          "internalType": "address",
          "name": "to",
          "type": "address"
        },
        {
          "internalType": "uint256",
          "name": "tokenId",
          "type": "uint256"
        },
        {
          "internalType": "bytes",
          "name": "data",
          "type": "bytes"
        }
      ],
      "name": "safeTransferFrom",
      "outputs": [],
      "stateMutability": "nonpayable",
      "type": "function"
    },
    {
      "inputs": [
        {
          "internalType": "address",
          "name": "operator",
          "type": "address"
        },
        {
          "internalType": "bool",
          "name": "approved",
          "type": "bool"
        }
      ],
      "name": "setApprovalForAll",
      "outputs": [],
      "stateMutability": "nonpayable",
      "type": "function"
    },
    {
      "inputs": [
        {
          "internalType": "bytes4",
          "name": "interfaceId",
          "type": "bytes4"
        }
      ],
      "name": "supportsInterface",
      "outputs": [
        {
          "internalType": "bool",
          "name": "",
          "type": "bool"
        }
      ],
      "stateMutability": "view",
      "type": "function"
    },
    {
      "inputs": [],
      "name": "symbol",
      "outputs": [
        {
          "internalType": "string",
          "name": "",
          "type": "string"
        }
      ],
      "stateMutability": "view",
      "type": "function"
    },
    {
      "inputs": [
        {
          "internalType": "uint256",
          "name": "tokenId",
          "type": "uint256"
        }
      ],
      "name": "tokenURI",
      "outputs": [
        {
          "internalType": "string",
          "name": "",
          "type": "string"
        }
      ],
      "stateMutability": "view",
      "type": "function"
    },
    {
      "inputs": [
        {
          "internalType": "address",
          "name": "from",
          "type": "address"
        },
        {
          "internalType": "address",
          "name": "to",
          "type": "address"
        },
        {
          "internalType": "uint256",
          "name": "tokenId",
          "type": "uint256"
        }
      ],
      "name": "transferFrom",
      "outputs": [],
      "stateMutability": "nonpayable",
      "type": "function"
    },
    {
      "inputs": [
        {
          "internalType": "address",
          "name": "newOwner",
          "type": "address"
        }
      ],
      "name": "transferOwnership",
      "outputs": [],
      "stateMutability": "nonpayable",
      "type": "function"
    },
    {
      "inputs": [
        {
          "internalType": "address",
          "name": "user",
          "type": "address"
        },
        {
          "internalType": "string",
          "name": "reason",
          "type": "string"
        }
      ],
      "name": "warnUser",
      "outputs": [],
      "stateMutability": "nonpayable",
      "type": "function"
    }
  ],
  "bytecode": "0x608060405234801561001057600080fd5b506040516139d73803806139d783398181016040528101906100329190610272565b806040518060400160405280600481526020017f42494e47000000000000000000000000000000000000000000000000000000008152506040518060400160405280600781526020017f62696e674e46540000000000000000000000000000000000000000000000000081525081600090816100ae91906104ef565b5080600190816100be91906104ef565b505050600073ffffffffffffffffffffffffffffffffffffffff168173ffffffffffffffffffffffffffffffffffffffff16036101335760006040517f1e4fbdf700000000000000000000000000000000000000000000000000000000815260040161012a91906105d0565b60405180910390fd5b6101428161014960201b60201c565b50506105eb565b6000600660009054906101000a900473ffffffffffffffffffffffffffffffffffffffff16905081600660006101000a81548173ffffffffffffffffffffffffffffffffffffffff021916908373ffffffffffffffffffffffffffffffffffffffff1602179055508173ffffffffffffffffffffffffffffffffffffffff168173ffffffffffffffffffffffffffffffffffffffff167f8be0079c531659141344cd1fd0a4f28419497f9722a3daafe3b4186f6b6457e060405160405180910390a35050565b600080fd5b600073ffffffffffffffffffffffffffffffffffffffff82169050919050565b600061023f82610214565b9050919050565b61024f81610234565b811461025a57600080fd5b50565b60008151905061026c81610246565b92915050565b6000602082840312156102885761028761020f565b5b60006102968482850161025d565b91505092915050565b600081519050919050565b7f4e487b7100000000000000000000000000000000000000000000000000000000600052604160045260246000fd5b7f4e487b7100000000000000000000000000000000000000000000000000000000600052602260045260246000fd5b6000600282049050600182168061032057607f821691505b602082108103610333576103326102d9565b5b50919050565b60008190508160005260206000209050919050565b60006020601f8301049050919050565b600082821b905092915050565b60006008830261039b7fffffffffffffffffffffffffffffffffffffffffffffffffffffffffffffffff8261035e565b6103a5868361035e565b95508019841693508086168417925050509392505050565b6000819050919050565b6000819050919050565b60006103ec6103e76103e2846103bd565b6103c7565b6103bd565b9050919050565b6000819050919050565b610406836103d1565b61041a610412826103f3565b84845461036b565b825550505050565b600090565b61042f610422565b61043a8184846103fd565b505050565b5b8181101561045e57610453600082610427565b600181019050610440565b5050565b601f8211156104a35761047481610339565b61047d8461034e565b8101602085101561048c578190505b6104a06104988561034e565b83018261043f565b50505b505050565b600082821c905092915050565b60006104c6600019846008026104a8565b1980831691505092915050565b60006104df83836104b5565b9150826002028217905092915050565b6104f88261029f565b67ffffffffffffffff811115610511576105106102aa565b5b61051b8254610308565b610526828285610462565b600060209050601f8311600181146105595760008415610547578287015190505b61055185826104d3565b8655506105b9565b601f19841661056786610339565b60005b8281101561058f5784890151825560018201915060208501945060208101905061056a565b868310156105ac57848901516105a8601f8916826104b5565b8355505b6001600288020188555050505b505050505050565b6105ca81610234565b82525050565b60006020820190506105e560008301846105c1565b92915050565b6133dd806105fa6000396000f3fe6080604052600436106101355760003560e01c80637e8baa7e116100ab578063b88d4fde1161006f578063b88d4fde14610429578063badb97ff14610452578063c87b56dd1461047b578063cdcbd9c2146104b8578063e985e9c5146104f5578063f2fde38b1461053257610135565b80637e8baa7e146103445780638da5cb5b1461036d57806395d89b4114610398578063a22cb465146103c3578063a574cea4146103ec57610135565b806323b872dd116100fd57806323b872dd1461024557806342842e0e1461026e578063560557c4146102975780636352211e146102b357806370a08231146102f0578063715018a61461032d57610135565b806301ffc9a71461013a57806306fdde0314610177578063072bfc7c146101a2578063081812fc146101df578063095ea7b31461021c575b600080fd5b34801561014657600080fd5b50610161600480360381019061015c9190612340565b61055b565b60405161016e9190612388565b60405180910390f35b34801561018357600080fd5b5061018c61063d565b6040516101999190612433565b60405180910390f35b3480156101ae57600080fd5b506101c960048036038101906101c491906124e9565b6106cf565b6040516101d69190612433565b60405180910390f35b3480156101eb57600080fd5b5061020660048036038101906102019190612529565b610788565b6040516102139190612565565b60405180910390f35b34801561022857600080fd5b50610243600480360381019061023e91906124e9565b6107a4565b005b34801561025157600080fd5b5061026c60048036038101906102679190612580565b6107ba565b005b34801561027a57600080fd5b5061029560048036038101906102909190612580565b6108bc565b005b6102b160048036038101906102ac9190612708565b6108dc565b005b3480156102bf57600080fd5b506102da60048036038101906102d59190612529565b610aa7565b6040516102e79190612565565b60405180910390f35b3480156102fc57600080fd5b50610317600480360381019061031291906127f3565b610ab9565b604051610324919061282f565b60405180910390f35b34801561033957600080fd5b50610342610b73565b005b34801561035057600080fd5b5061036b6004803603810190610366919061284a565b610b87565b005b34801561037957600080fd5b50610382610c05565b60405161038f9190612565565b60405180910390f35b3480156103a457600080fd5b506103ad610c2f565b6040516103ba9190612433565b60405180910390f35b3480156103cf57600080fd5b506103ea60048036038101906103e591906128d2565b610cc1565b005b3480156103f857600080fd5b50610413600480360381019061040e9190612529565b610cd7565b60405161042091906129d4565b60405180910390f35b34801561043557600080fd5b50610450600480360381019061044b9190612a97565b610f94565b005b34801561045e57600080fd5b5061047960048036038101906104749190612529565b610fb9565b005b34801561048757600080fd5b506104a2600480360381019061049d9190612529565b611023565b6040516104af9190612433565b60405180910390f35b3480156104c457600080fd5b506104df60048036038101906104da91906127f3565b61108c565b6040516104ec9190612bdc565b60405180910390f35b34801561050157600080fd5b5061051c60048036038101906105179190612bfe565b6111a4565b6040516105299190612388565b60405180910390f35b34801561053e57600080fd5b50610559600480360381019061055491906127f3565b611238565b005b60007f80ac58cd000000000000000000000000000000000000000000000000000000007bffffffffffffffffffffffffffffffffffffffffffffffffffffffff1916827bffffffffffffffffffffffffffffffffffffffffffffffffffffffff1916148061062657507f5b5e139f000000000000000000000000000000000000000000000000000000007bffffffffffffffffffffffffffffffffffffffffffffffffffffffff1916827bffffffffffffffffffffffffffffffffffffffffffffffffffffffff1916145b806106365750610635826112be565b5b9050919050565b60606000805461064c90612c6d565b80601f016020809104026020016040519081016040528092919081815260200182805461067890612c6d565b80156106c55780601f1061069a576101008083540402835291602001916106c5565b820191906000526020600020905b8154815290600101906020018083116106a857829003601f168201915b5050505050905090565b600960205281600052604060002081815481106106eb57600080fd5b9060005260206000200160009150915050805461070790612c6d565b80601f016020809104026020016040519081016040528092919081815260200182805461073390612c6d565b80156107805780601f1061075557610100808354040283529160200191610780565b820191906000526020600020905b81548152906001019060200180831161076357829003601f168201915b505050505081565b600061079382611328565b5061079d826113b0565b9050919050565b6107b682826107b16113ed565b6113f5565b5050565b600073ffffffffffffffffffffffffffffffffffffffff168273ffffffffffffffffffffffffffffffffffffffff160361082c5760006040517f64a0ae920000000000000000000000000000000000000000000000000000000081526004016108239190612565565b60405180910390fd5b6000610840838361083b6113ed565b611407565b90508373ffffffffffffffffffffffffffffffffffffffff168173ffffffffffffffffffffffffffffffffffffffff16146108b6578382826040517f64283d7b0000000000000000000000000000000000000000000000000000000081526004016108ad93929190612c9e565b60405180910390fd5b50505050565b6108d783838360405180602001604052806000815250610f94565b505050565b6000341161091f576040517f08c379a000000000000000000000000000000000000000000000000000000000815260040161091690612d47565b60405180910390fd5b601e845110610963576040517f08c379a000000000000000000000000000000000000000000000000000000000815260040161095a90612db3565b60405180910390fd5b60648251106109a7576040517f08c379a000000000000000000000000000000000000000000000000000000000815260040161099e90612e1f565b60405180910390fd5b60648151106109eb576040517f08c379a00000000000000000000000000000000000000000000000000000000081526004016109e290612e8b565b60405180910390fd5b600060076000815480929190610a0090612eda565b919050559050610a108682611621565b604051806080016040528086815260200185815260200184815260200183815250600860008381526020019081526020016000206000820151816000019081610a5991906130ce565b506020820151816001019081610a6f91906130ce565b506040820151816002019081610a8591906130ce565b506060820151816003019081610a9b91906130ce565b50905050505050505050565b6000610ab282611328565b9050919050565b60008073ffffffffffffffffffffffffffffffffffffffff168273ffffffffffffffffffffffffffffffffffffffff1603610b2c5760006040517f89c62b64000000000000000000000000000000000000000000000000000000008152600401610b239190612565565b60405180910390fd5b600360008373ffffffffffffffffffffffffffffffffffffffff1673ffffffffffffffffffffffffffffffffffffffff168152602001908152602001600020549050919050565b610b7b61163f565b610b8560006116c6565b565b610b8f61163f565b600960008373ffffffffffffffffffffffffffffffffffffffff1673ffffffffffffffffffffffffffffffffffffffff16815260200190815260200160002081908060018154018082558091505060019003906000526020600020016000909190919091509081610c0091906130ce565b505050565b6000600660009054906101000a900473ffffffffffffffffffffffffffffffffffffffff16905090565b606060018054610c3e90612c6d565b80601f0160208091040260200160405190810160405280929190818152602001828054610c6a90612c6d565b8015610cb75780601f10610c8c57610100808354040283529160200191610cb7565b820191906000526020600020905b815481529060010190602001808311610c9a57829003601f168201915b5050505050905090565b610cd3610ccc6113ed565b838361178c565b5050565b610cdf61224f565b610ce8826118fb565b610d27576040517f08c379a0000000000000000000000000000000000000000000000000000000008152600401610d1e906131ec565b60405180910390fd5b60086000838152602001908152602001600020604051806080016040529081600082018054610d5590612c6d565b80601f0160208091040260200160405190810160405280929190818152602001828054610d8190612c6d565b8015610dce5780601f10610da357610100808354040283529160200191610dce565b820191906000526020600020905b815481529060010190602001808311610db157829003601f168201915b50505050508152602001600182018054610de790612c6d565b80601f0160208091040260200160405190810160405280929190818152602001828054610e1390612c6d565b8015610e605780601f10610e3557610100808354040283529160200191610e60565b820191906000526020600020905b815481529060010190602001808311610e4357829003601f168201915b50505050508152602001600282018054610e7990612c6d565b80601f0160208091040260200160405190810160405280929190818152602001828054610ea590612c6d565b8015610ef25780601f10610ec757610100808354040283529160200191610ef2565b820191906000526020600020905b815481529060010190602001808311610ed557829003601f168201915b50505050508152602001600382018054610f0b90612c6d565b80601f0160208091040260200160405190810160405280929190818152602001828054610f3790612c6d565b8015610f845780601f10610f5957610100808354040283529160200191610f84565b820191906000526020600020905b815481529060010190602001808311610f6757829003601f168201915b5050505050815250509050919050565b610f9f8484846107ba565b610fb3610faa6113ed565b8585858561193c565b50505050565b610fc161163f565b610fca81611aed565b6008600082815260200190815260200160002060008082016000610fee9190612277565b600182016000610ffe9190612277565b60028201600061100e9190612277565b60038201600061101e9190612277565b505050565b606061102e82611328565b506000611039611b73565b905060008151116110595760405180602001604052806000815250611084565b8061106384611b8a565b604051602001611074929190613248565b6040516020818303038152906040525b915050919050565b6060600960008373ffffffffffffffffffffffffffffffffffffffff1673ffffffffffffffffffffffffffffffffffffffff168152602001908152602001600020805480602002602001604051908101604052809291908181526020016000905b8282101561119957838290600052602060002001805461110c90612c6d565b80601f016020809104026020016040519081016040528092919081815260200182805461113890612c6d565b80156111855780601f1061115a57610100808354040283529160200191611185565b820191906000526020600020905b81548152906001019060200180831161116857829003601f168201915b5050505050815260200190600101906110ed565b505050509050919050565b6000600560008473ffffffffffffffffffffffffffffffffffffffff1673ffffffffffffffffffffffffffffffffffffffff16815260200190815260200160002060008373ffffffffffffffffffffffffffffffffffffffff1673ffffffffffffffffffffffffffffffffffffffff16815260200190815260200160002060009054906101000a900460ff16905092915050565b61124061163f565b600073ffffffffffffffffffffffffffffffffffffffff168173ffffffffffffffffffffffffffffffffffffffff16036112b25760006040517f1e4fbdf70000000000000000000000000000000000000000000000000000000081526004016112a99190612565565b60405180910390fd5b6112bb816116c6565b50565b60007f01ffc9a7000000000000000000000000000000000000000000000000000000007bffffffffffffffffffffffffffffffffffffffffffffffffffffffff1916827bffffffffffffffffffffffffffffffffffffffffffffffffffffffff1916149050919050565b60008061133483611c58565b9050600073ffffffffffffffffffffffffffffffffffffffff168173ffffffffffffffffffffffffffffffffffffffff16036113a757826040517f7e27328900000000000000000000000000000000000000000000000000000000815260040161139e919061282f565b60405180910390fd5b80915050919050565b60006004600083815260200190815260200160002060009054906101000a900473ffffffffffffffffffffffffffffffffffffffff169050919050565b600033905090565b6114028383836001611c95565b505050565b60008061141384611c58565b9050600073ffffffffffffffffffffffffffffffffffffffff168373ffffffffffffffffffffffffffffffffffffffff161461145557611454818486611e5a565b5b600073ffffffffffffffffffffffffffffffffffffffff168173ffffffffffffffffffffffffffffffffffffffff16146114e657611497600085600080611c95565b6001600360008373ffffffffffffffffffffffffffffffffffffffff1673ffffffffffffffffffffffffffffffffffffffff168152602001908152602001600020600082825403925050819055505b600073ffffffffffffffffffffffffffffffffffffffff168573ffffffffffffffffffffffffffffffffffffffff1614611569576001600360008773ffffffffffffffffffffffffffffffffffffffff1673ffffffffffffffffffffffffffffffffffffffff168152602001908152602001600020600082825401925050819055505b846002600086815260200190815260200160002060006101000a81548173ffffffffffffffffffffffffffffffffffffffff021916908373ffffffffffffffffffffffffffffffffffffffff160217905550838573ffffffffffffffffffffffffffffffffffffffff168273ffffffffffffffffffffffffffffffffffffffff167fddf252ad1be2c89b69c2b068fc378daa952ba7f163c4a11628f55a4df523b3ef60405160405180910390a4809150509392505050565b61163b828260405180602001604052806000815250611f1e565b5050565b6116476113ed565b73ffffffffffffffffffffffffffffffffffffffff16611665610c05565b73ffffffffffffffffffffffffffffffffffffffff16146116c4576116886113ed565b6040517f118cdaa70000000000000000000000000000000000000000000000000000000081526004016116bb9190612565565b60405180910390fd5b565b6000600660009054906101000a900473ffffffffffffffffffffffffffffffffffffffff16905081600660006101000a81548173ffffffffffffffffffffffffffffffffffffffff021916908373ffffffffffffffffffffffffffffffffffffffff1602179055508173ffffffffffffffffffffffffffffffffffffffff168173ffffffffffffffffffffffffffffffffffffffff167f8be0079c531659141344cd1fd0a4f28419497f9722a3daafe3b4186f6b6457e060405160405180910390a35050565b600073ffffffffffffffffffffffffffffffffffffffff168273ffffffffffffffffffffffffffffffffffffffff16036117fd57816040517f5b08ba180000000000000000000000000000000000000000000000000000000081526004016117f49190612565565b60405180910390fd5b80600560008573ffffffffffffffffffffffffffffffffffffffff1673ffffffffffffffffffffffffffffffffffffffff16815260200190815260200160002060008473ffffffffffffffffffffffffffffffffffffffff1673ffffffffffffffffffffffffffffffffffffffff16815260200190815260200160002060006101000a81548160ff0219169083151502179055508173ffffffffffffffffffffffffffffffffffffffff168373ffffffffffffffffffffffffffffffffffffffff167f17307eab39ab6107e8899845ad3d59bd9653f200f220920489ca2b5937696c31836040516118ee9190612388565b60405180910390a3505050565b60008073ffffffffffffffffffffffffffffffffffffffff1661191d83611c58565b73ffffffffffffffffffffffffffffffffffffffff1614159050919050565b60008373ffffffffffffffffffffffffffffffffffffffff163b1115611ae6578273ffffffffffffffffffffffffffffffffffffffff1663150b7a02868685856040518563ffffffff1660e01b815260040161199b94939291906132c1565b6020604051808303816000875af19250505080156119d757506040513d601f19601f820116820180604052508101906119d49190613322565b60015b611a5b573d8060008114611a07576040519150601f19603f3d011682016040523d82523d6000602084013e611a0c565b606091505b506000815103611a5357836040517f64a0ae92000000000000000000000000000000000000000000000000000000008152600401611a4a9190612565565b60405180910390fd5b805181602001fd5b63150b7a0260e01b7bffffffffffffffffffffffffffffffffffffffffffffffffffffffff1916817bffffffffffffffffffffffffffffffffffffffffffffffffffffffff191614611ae457836040517f64a0ae92000000000000000000000000000000000000000000000000000000008152600401611adb9190612565565b60405180910390fd5b505b5050505050565b6000611afc6000836000611407565b9050600073ffffffffffffffffffffffffffffffffffffffff168173ffffffffffffffffffffffffffffffffffffffff1603611b6f57816040517f7e273289000000000000000000000000000000000000000000000000000000008152600401611b66919061282f565b60405180910390fd5b5050565b606060405180602001604052806000815250905090565b606060006001611b9984611f42565b01905060008167ffffffffffffffff811115611bb857611bb76125dd565b5b6040519080825280601f01601f191660200182016040528015611bea5781602001600182028036833780820191505090505b509050600082602001820190505b600115611c4d578080600190039150507f3031323334353637383961626364656600000000000000000000000000000000600a86061a8153600a8581611c4157611c4061334f565b5b04945060008503611bf8575b819350505050919050565b60006002600083815260200190815260200160002060009054906101000a900473ffffffffffffffffffffffffffffffffffffffff169050919050565b8080611cce5750600073ffffffffffffffffffffffffffffffffffffffff168273ffffffffffffffffffffffffffffffffffffffff1614155b15611e02576000611cde84611328565b9050600073ffffffffffffffffffffffffffffffffffffffff168373ffffffffffffffffffffffffffffffffffffffff1614158015611d4957508273ffffffffffffffffffffffffffffffffffffffff168173ffffffffffffffffffffffffffffffffffffffff1614155b8015611d5c5750611d5a81846111a4565b155b15611d9e57826040517fa9fbf51f000000000000000000000000000000000000000000000000000000008152600401611d959190612565565b60405180910390fd5b8115611e0057838573ffffffffffffffffffffffffffffffffffffffff168273ffffffffffffffffffffffffffffffffffffffff167f8c5be1e5ebec7d5bd14f71427d1e84f3dd0314c0f7b2291e5b200ac8c7c3b92560405160405180910390a45b505b836004600085815260200190815260200160002060006101000a81548173ffffffffffffffffffffffffffffffffffffffff021916908373ffffffffffffffffffffffffffffffffffffffff16021790555050505050565b611e65838383612095565b611f1957600073ffffffffffffffffffffffffffffffffffffffff168373ffffffffffffffffffffffffffffffffffffffff1603611eda57806040517f7e273289000000000000000000000000000000000000000000000000000000008152600401611ed1919061282f565b60405180910390fd5b81816040517f177e802f000000000000000000000000000000000000000000000000000000008152600401611f1092919061337e565b60405180910390fd5b505050565b611f288383612156565b611f3d611f336113ed565b600085858561193c565b505050565b600080600090507a184f03e93ff9f4daa797ed6e38ed64bf6a1f0100000000000000008310611fa0577a184f03e93ff9f4daa797ed6e38ed64bf6a1f0100000000000000008381611f9657611f9561334f565b5b0492506040810190505b6d04ee2d6d415b85acef81000000008310611fdd576d04ee2d6d415b85acef81000000008381611fd357611fd261334f565b5b0492506020810190505b662386f26fc10000831061200c57662386f26fc1000083816120025761200161334f565b5b0492506010810190505b6305f5e1008310612035576305f5e100838161202b5761202a61334f565b5b0492506008810190505b612710831061205a5761271083816120505761204f61334f565b5b0492506004810190505b6064831061207d57606483816120735761207261334f565b5b0492506002810190505b600a831061208c576001810190505b80915050919050565b60008073ffffffffffffffffffffffffffffffffffffffff168373ffffffffffffffffffffffffffffffffffffffff161415801561214d57508273ffffffffffffffffffffffffffffffffffffffff168473ffffffffffffffffffffffffffffffffffffffff16148061210e575061210d84846111a4565b5b8061214c57508273ffffffffffffffffffffffffffffffffffffffff16612134836113b0565b73ffffffffffffffffffffffffffffffffffffffff16145b5b90509392505050565b600073ffffffffffffffffffffffffffffffffffffffff168273ffffffffffffffffffffffffffffffffffffffff16036121c85760006040517f64a0ae920000000000000000000000000000000000000000000000000000000081526004016121bf9190612565565b60405180910390fd5b60006121d683836000611407565b9050600073ffffffffffffffffffffffffffffffffffffffff168173ffffffffffffffffffffffffffffffffffffffff161461224a5760006040517f73c6ac6e0000000000000000000000000000000000000000000000000000000081526004016122419190612565565b60405180910390fd5b505050565b6040518060800160405280606081526020016060815260200160608152602001606081525090565b50805461228390612c6d565b6000825580601f1061229557506122b4565b601f0160209004906000526020600020908101906122b391906122b7565b5b50565b5b808211156122d05760008160009055506001016122b8565b5090565b6000604051905090565b600080fd5b600080fd5b60007fffffffff0000000000000000000000000000000000000000000000000000000082169050919050565b61231d816122e8565b811461232857600080fd5b50565b60008135905061233a81612314565b92915050565b600060208284031215612356576123556122de565b5b60006123648482850161232b565b91505092915050565b60008115159050919050565b6123828161236d565b82525050565b600060208201905061239d6000830184612379565b92915050565b600081519050919050565b600082825260208201905092915050565b60005b838110156123dd5780820151818401526020810190506123c2565b60008484015250505050565b6000601f19601f8301169050919050565b6000612405826123a3565b61240f81856123ae565b935061241f8185602086016123bf565b612428816123e9565b840191505092915050565b6000602082019050818103600083015261244d81846123fa565b905092915050565b600073ffffffffffffffffffffffffffffffffffffffff82169050919050565b600061248082612455565b9050919050565b61249081612475565b811461249b57600080fd5b50565b6000813590506124ad81612487565b92915050565b6000819050919050565b6124c6816124b3565b81146124d157600080fd5b50565b6000813590506124e3816124bd565b92915050565b60008060408385031215612500576124ff6122de565b5b600061250e8582860161249e565b925050602061251f858286016124d4565b9150509250929050565b60006020828403121561253f5761253e6122de565b5b600061254d848285016124d4565b91505092915050565b61255f81612475565b82525050565b600060208201905061257a6000830184612556565b92915050565b600080600060608486031215612599576125986122de565b5b60006125a78682870161249e565b93505060206125b88682870161249e565b92505060406125c9868287016124d4565b9150509250925092565b600080fd5b600080fd5b7f4e487b7100000000000000000000000000000000000000000000000000000000600052604160045260246000fd5b612615826123e9565b810181811067ffffffffffffffff82111715612634576126336125dd565b5b80604052505050565b60006126476122d4565b9050612653828261260c565b919050565b600067ffffffffffffffff821115612673576126726125dd565b5b61267c826123e9565b9050602081019050919050565b82818337600083830152505050565b60006126ab6126a684612658565b61263d565b9050828152602081018484840111156126c7576126c66125d8565b5b6126d2848285612689565b509392505050565b600082601f8301126126ef576126ee6125d3565b5b81356126ff848260208601612698565b91505092915050565b600080600080600060a08688031215612724576127236122de565b5b60006127328882890161249e565b955050602086013567ffffffffffffffff811115612753576127526122e3565b5b61275f888289016126da565b945050604086013567ffffffffffffffff8111156127805761277f6122e3565b5b61278c888289016126da565b935050606086013567ffffffffffffffff8111156127ad576127ac6122e3565b5b6127b9888289016126da565b925050608086013567ffffffffffffffff8111156127da576127d96122e3565b5b6127e6888289016126da565b9150509295509295909350565b600060208284031215612809576128086122de565b5b60006128178482850161249e565b91505092915050565b612829816124b3565b82525050565b60006020820190506128446000830184612820565b92915050565b60008060408385031215612861576128606122de565b5b600061286f8582860161249e565b925050602083013567ffffffffffffffff8111156128905761288f6122e3565b5b61289c858286016126da565b9150509250929050565b6128af8161236d565b81146128ba57600080fd5b50565b6000813590506128cc816128a6565b92915050565b600080604083850312156128e9576128e86122de565b5b60006128f78582860161249e565b9250506020612908858286016128bd565b9150509250929050565b600082825260208201905092915050565b600061292e826123a3565b6129388185612912565b93506129488185602086016123bf565b612951816123e9565b840191505092915050565b600060808301600083015184820360008601526129798282612923565b915050602083015184820360208601526129938282612923565b915050604083015184820360408601526129ad8282612923565b915050606083015184820360608601526129c78282612923565b9150508091505092915050565b600060208201905081810360008301526129ee818461295c565b905092915050565b600067ffffffffffffffff821115612a1157612a106125dd565b5b612a1a826123e9565b9050602081019050919050565b6000612a3a612a35846129f6565b61263d565b905082815260208101848484011115612a5657612a556125d8565b5b612a61848285612689565b509392505050565b600082601f830112612a7e57612a7d6125d3565b5b8135612a8e848260208601612a27565b91505092915050565b60008060008060808587031215612ab157612ab06122de565b5b6000612abf8782880161249e565b9450506020612ad08782880161249e565b9350506040612ae1878288016124d4565b925050606085013567ffffffffffffffff811115612b0257612b016122e3565b5b612b0e87828801612a69565b91505092959194509250565b600081519050919050565b600082825260208201905092915050565b6000819050602082019050919050565b6000612b528383612923565b905092915050565b6000602082019050919050565b6000612b7282612b1a565b612b7c8185612b25565b935083602082028501612b8e85612b36565b8060005b85811015612bca5784840389528151612bab8582612b46565b9450612bb683612b5a565b925060208a01995050600181019050612b92565b50829750879550505050505092915050565b60006020820190508181036000830152612bf68184612b67565b905092915050565b60008060408385031215612c1557612c146122de565b5b6000612c238582860161249e565b9250506020612c348582860161249e565b9150509250929050565b7f4e487b7100000000000000000000000000000000000000000000000000000000600052602260045260246000fd5b60006002820490506001821680612c8557607f821691505b602082108103612c9857612c97612c3e565b5b50919050565b6000606082019050612cb36000830186612556565b612cc06020830185612820565b612ccd6040830184612556565b949350505050565b7f496e73756666696369656e74207061796d656e742e204d696e696d756d20706160008201527f796d656e7420697320302e000000000000000000000000000000000000000000602082015250565b6000612d31602b836123ae565b9150612d3c82612cd5565b604082019050919050565b60006020820190508181036000830152612d6081612d24565b9050919050565b7f496e76616c6964206e616d65206c656e67746800000000000000000000000000600082015250565b6000612d9d6013836123ae565b9150612da882612d67565b602082019050919050565b60006020820190508181036000830152612dcc81612d90565b9050919050565b7f496e76616c6964206c656e67746820666f722071756f74653100000000000000600082015250565b6000612e096019836123ae565b9150612e1482612dd3565b602082019050919050565b60006020820190508181036000830152612e3881612dfc565b9050919050565b7f496e76616c6964206c656e67746820666f722071756f74653200000000000000600082015250565b6000612e756019836123ae565b9150612e8082612e3f565b602082019050919050565b60006020820190508181036000830152612ea481612e68565b9050919050565b7f4e487b7100000000000000000000000000000000000000000000000000000000600052601160045260246000fd5b6000612ee5826124b3565b91507fffffffffffffffffffffffffffffffffffffffffffffffffffffffffffffffff8203612f1757612f16612eab565b5b600182019050919050565b60008190508160005260206000209050919050565b60006020601f8301049050919050565b600082821b905092915050565b600060088302612f847fffffffffffffffffffffffffffffffffffffffffffffffffffffffffffffffff82612f47565b612f8e8683612f47565b95508019841693508086168417925050509392505050565b6000819050919050565b6000612fcb612fc6612fc1846124b3565b612fa6565b6124b3565b9050919050565b6000819050919050565b612fe583612fb0565b612ff9612ff182612fd2565b848454612f54565b825550505050565b600090565b61300e613001565b613019818484612fdc565b505050565b5b8181101561303d57613032600082613006565b60018101905061301f565b5050565b601f8211156130825761305381612f22565b61305c84612f37565b8101602085101561306b578190505b61307f61307785612f37565b83018261301e565b50505b505050565b600082821c905092915050565b60006130a560001984600802613087565b1980831691505092915050565b60006130be8383613094565b9150826002028217905092915050565b6130d7826123a3565b67ffffffffffffffff8111156130f0576130ef6125dd565b5b6130fa8254612c6d565b613105828285613041565b600060209050601f8311600181146131385760008415613126578287015190505b61313085826130b2565b865550613198565b601f19841661314686612f22565b60005b8281101561316e57848901518255600182019150602085019450602081019050613149565b8683101561318b5784890151613187601f891682613094565b8355505b6001600288020188555050505b505050505050565b7f546f6b656e20646f6573206e6f74206578697374000000000000000000000000600082015250565b60006131d66014836123ae565b91506131e1826131a0565b602082019050919050565b60006020820190508181036000830152613205816131c9565b9050919050565b600081905092915050565b6000613222826123a3565b61322c818561320c565b935061323c8185602086016123bf565b80840191505092915050565b60006132548285613217565b91506132608284613217565b91508190509392505050565b600081519050919050565b600082825260208201905092915050565b60006132938261326c565b61329d8185613277565b93506132ad8185602086016123bf565b6132b6816123e9565b840191505092915050565b60006080820190506132d66000830187612556565b6132e36020830186612556565b6132f06040830185612820565b81810360608301526133028184613288565b905095945050505050565b60008151905061331c81612314565b92915050565b600060208284031215613338576133376122de565b5b60006133468482850161330d565b91505092915050565b7f4e487b7100000000000000000000000000000000000000000000000000000000600052601260045260246000fd5b60006040820190506133936000830185612556565b6133a06020830184612820565b939250505056fea26469706673582212200a2a52e61ae5ff41ca8c097715bb883a5ae839e1caafbb281be49632237831e864736f6c634300081c0033",
  "linkReferences": {},
  "deployedLinkReferences": {}
}